{
  "contractName": "Candidates",
  "abi": [
    {
      "inputs": [
        {
          "internalType": "string[]",
          "name": "existingCandidates",
          "type": "string[]"
        }
      ],
      "stateMutability": "nonpayable",
      "type": "constructor"
    },
    {
      "inputs": [
        {
          "internalType": "uint256",
          "name": "",
          "type": "uint256"
        }
      ],
      "name": "candidates",
      "outputs": [
        {
          "internalType": "string",
          "name": "name",
          "type": "string"
        },
        {
          "internalType": "uint256",
          "name": "votes",
          "type": "uint256"
        }
      ],
      "stateMutability": "view",
      "type": "function",
      "constant": true
    },
    {
      "inputs": [],
      "name": "owner",
      "outputs": [
        {
          "internalType": "address",
          "name": "",
          "type": "address"
        }
      ],
      "stateMutability": "view",
      "type": "function",
      "constant": true
    },
    {
      "inputs": [],
      "name": "winnerIndex",
      "outputs": [
        {
          "internalType": "uint256",
          "name": "",
          "type": "uint256"
        }
      ],
      "stateMutability": "view",
      "type": "function",
      "constant": true
    },
    {
      "inputs": [],
      "name": "getCandidates",
      "outputs": [
        {
          "components": [
            {
              "internalType": "string",
              "name": "name",
              "type": "string"
            },
            {
              "internalType": "uint256",
              "name": "votes",
              "type": "uint256"
            }
          ],
          "internalType": "struct Candidates.Candidate[]",
          "name": "",
          "type": "tuple[]"
        }
      ],
      "stateMutability": "view",
      "type": "function",
      "constant": true
    },
    {
      "inputs": [
        {
          "internalType": "address",
          "name": "voterContractAddress",
          "type": "address"
        },
        {
          "internalType": "address",
          "name": "voterAccountAddress",
          "type": "address"
        }
      ],
      "name": "giveRightToVote",
      "outputs": [],
      "stateMutability": "nonpayable",
      "type": "function"
    },
    {
      "inputs": [
        {
          "internalType": "string",
          "name": "newCandidate",
          "type": "string"
        }
      ],
      "name": "addCandidate",
      "outputs": [],
      "stateMutability": "nonpayable",
      "type": "function"
    },
    {
      "inputs": [
        {
          "internalType": "uint256",
          "name": "candidateIndex",
          "type": "uint256"
        }
      ],
      "name": "castVote",
      "outputs": [],
      "stateMutability": "nonpayable",
      "type": "function"
    },
    {
      "inputs": [
        {
          "internalType": "address",
          "name": "electionWinnerContractAddress",
          "type": "address"
        }
      ],
      "name": "getWinnerName",
      "outputs": [
        {
          "internalType": "uint256[]",
          "name": "votesArray",
          "type": "uint256[]"
        }
      ],
      "stateMutability": "nonpayable",
      "type": "function"
    },
    {
      "inputs": [],
      "name": "getCandidatesVotes",
      "outputs": [
        {
          "internalType": "uint256[]",
          "name": "tempCandidatesVotes",
          "type": "uint256[]"
        }
      ],
      "stateMutability": "view",
      "type": "function",
      "constant": true
    }
  ],
  "bytecode": "0x60806040523480156200001157600080fd5b5060405162001bc038038062001bc08339818101604052810190620000379190620003b3565b336000806101000a81548173ffffffffffffffffffffffffffffffffffffffff021916908373ffffffffffffffffffffffffffffffffffffffff16021790555060005b81518110156200011c5760016040518060400160405280848481518110620000a757620000a662000404565b5b60200260200101518152602001600081525090806001815401808255809150506001900390600052602060002090600202016000909190919091506000820151816000019081620000f991906200067e565b506020820151816001015550508080620001139062000794565b9150506200007a565b5050620007e1565b6000604051905090565b600080fd5b600080fd5b600080fd5b6000601f19601f8301169050919050565b7f4e487b7100000000000000000000000000000000000000000000000000000000600052604160045260246000fd5b62000188826200013d565b810181811067ffffffffffffffff82111715620001aa57620001a96200014e565b5b80604052505050565b6000620001bf62000124565b9050620001cd82826200017d565b919050565b600067ffffffffffffffff821115620001f057620001ef6200014e565b5b602082029050602081019050919050565b600080fd5b600080fd5b600067ffffffffffffffff8211156200022957620002286200014e565b5b62000234826200013d565b9050602081019050919050565b60005b838110156200026157808201518184015260208101905062000244565b60008484015250505050565b6000620002846200027e846200020b565b620001b3565b905082815260208101848484011115620002a357620002a262000206565b5b620002b084828562000241565b509392505050565b600082601f830112620002d057620002cf62000138565b5b8151620002e28482602086016200026d565b91505092915050565b600062000302620002fc84620001d2565b620001b3565b9050808382526020820190506020840283018581111562000328576200032762000201565b5b835b818110156200037657805167ffffffffffffffff81111562000351576200035062000138565b5b808601620003608982620002b8565b855260208501945050506020810190506200032a565b5050509392505050565b600082601f83011262000398576200039762000138565b5b8151620003aa848260208601620002eb565b91505092915050565b600060208284031215620003cc57620003cb6200012e565b5b600082015167ffffffffffffffff811115620003ed57620003ec62000133565b5b620003fb8482850162000380565b91505092915050565b7f4e487b7100000000000000000000000000000000000000000000000000000000600052603260045260246000fd5b600081519050919050565b7f4e487b7100000000000000000000000000000000000000000000000000000000600052602260045260246000fd5b600060028204905060018216806200048657607f821691505b6020821081036200049c576200049b6200043e565b5b50919050565b60008190508160005260206000209050919050565b60006020601f8301049050919050565b600082821b905092915050565b600060088302620005067fffffffffffffffffffffffffffffffffffffffffffffffffffffffffffffffff82620004c7565b620005128683620004c7565b95508019841693508086168417925050509392505050565b6000819050919050565b6000819050919050565b60006200055f6200055962000553846200052a565b62000534565b6200052a565b9050919050565b6000819050919050565b6200057b836200053e565b620005936200058a8262000566565b848454620004d4565b825550505050565b600090565b620005aa6200059b565b620005b781848462000570565b505050565b5b81811015620005df57620005d3600082620005a0565b600181019050620005bd565b5050565b601f8211156200062e57620005f881620004a2565b6200060384620004b7565b8101602085101562000613578190505b6200062b6200062285620004b7565b830182620005bc565b50505b505050565b600082821c905092915050565b6000620006536000198460080262000633565b1980831691505092915050565b60006200066e838362000640565b9150826002028217905092915050565b620006898262000433565b67ffffffffffffffff811115620006a557620006a46200014e565b5b620006b182546200046d565b620006be828285620005e3565b600060209050601f831160018114620006f65760008415620006e1578287015190505b620006ed858262000660565b8655506200075d565b601f1984166200070686620004a2565b60005b82811015620007305784890151825560018201915060208501945060208101905062000709565b868310156200075057848901516200074c601f89168262000640565b8355505b6001600288020188555050505b505050505050565b7f4e487b7100000000000000000000000000000000000000000000000000000000600052601160045260246000fd5b6000620007a1826200052a565b91507fffffffffffffffffffffffffffffffffffffffffffffffffffffffffffffffff8203620007d657620007d562000765565b5b600182019050919050565b6113cf80620007f16000396000f3fe608060405234801561001057600080fd5b50600436106100935760003560e01c80638da5cb5b116100665780638da5cb5b1461011f5780638f00cbfa1461013d578063b21e33871461015b578063bd8a8c5114610179578063c05e5776146101a957610093565b806306a49fce146100985780633477ee2e146100b65780633eb76b9c146100e7578063462e91ec14610103575b600080fd5b6100a06101c5565b6040516100ad91906109a2565b60405180910390f35b6100d060048036038101906100cb9190610a04565b6102c0565b6040516100de929190610a8a565b60405180910390f35b61010160048036038101906100fc9190610a04565b61037c565b005b61011d60048036038101906101189190610bef565b610402565b005b6101276104c0565b6040516101349190610c79565b60405180910390f35b6101456104e4565b6040516101529190610c94565b60405180910390f35b6101636104ea565b6040516101709190610d5e565b60405180910390f35b610193600480360381019061018e9190610dac565b6105a8565b6040516101a09190610d5e565b60405180910390f35b6101c360048036038101906101be9190610dd9565b61062a565b005b60606001805480602002602001604051908101604052809291908181526020016000905b828210156102b7578382906000526020600020906002020160405180604001604052908160008201805461021c90610e48565b80601f016020809104026020016040519081016040528092919081815260200182805461024890610e48565b80156102955780601f1061026a57610100808354040283529160200191610295565b820191906000526020600020905b81548152906001019060200180831161027857829003601f168201915b50505050508152602001600182015481525050815260200190600101906101e9565b50505050905090565b600181815481106102d057600080fd5b90600052602060002090600202016000915090508060000180546102f390610e48565b80601f016020809104026020016040519081016040528092919081815260200182805461031f90610e48565b801561036c5780601f106103415761010080835404028352916020019161036c565b820191906000526020600020905b81548152906001019060200180831161034f57829003601f168201915b5050505050908060010154905082565b60018054905081106103c3576040517f08c379a00000000000000000000000000000000000000000000000000000000081526004016103ba90610ec5565b60405180910390fd5b60018082815481106103d8576103d7610ee5565b5b906000526020600020906002020160010160008282546103f89190610f43565b9250508190555050565b60008054906101000a900473ffffffffffffffffffffffffffffffffffffffff1673ffffffffffffffffffffffffffffffffffffffff163373ffffffffffffffffffffffffffffffffffffffff161461045a57600080fd5b600160405180604001604052808381526020016000815250908060018154018082558091505060019003906000526020600020906002020160009091909190915060008201518160000190816104b09190611123565b5060208201518160010155505050565b60008054906101000a900473ffffffffffffffffffffffffffffffffffffffff1681565b60025481565b606060018054905067ffffffffffffffff81111561050b5761050a610ac4565b5b6040519080825280602002602001820160405280156105395781602001602082028036833780820191505090505b50905060005b6001805490508110156105a457600181815481106105605761055f610ee5565b5b90600052602060002090600202016001015482828151811061058557610584610ee5565b5b602002602001018181525050808061059c906111f5565b91505061053f565b5090565b60606105b26104ea565b905060008290508073ffffffffffffffffffffffffffffffffffffffff1663f88a31f5836040518263ffffffff1660e01b81526004016105f29190610d5e565b600060405180830381600087803b15801561060c57600080fd5b505af1158015610620573d6000803e3d6000fd5b5050505050919050565b60008054906101000a900473ffffffffffffffffffffffffffffffffffffffff1673ffffffffffffffffffffffffffffffffffffffff163373ffffffffffffffffffffffffffffffffffffffff16146106b8576040517f08c379a00000000000000000000000000000000000000000000000000000000081526004016106af906112af565b60405180910390fd5b6000808373ffffffffffffffffffffffffffffffffffffffff16836040516024016106e39190610c79565b6040516020818303038152906040527f25725823000000000000000000000000000000000000000000000000000000007bffffffffffffffffffffffffffffffffffffffffffffffffffffffff19166020820180517bffffffffffffffffffffffffffffffffffffffffffffffffffffffff838183161783525050505060405161076d9190611316565b6000604051808303816000865af19150503d80600081146107aa576040519150601f19603f3d011682016040523d82523d6000602084013e6107af565b606091505b5091509150816107f4576040517f08c379a00000000000000000000000000000000000000000000000000000000081526004016107eb90611379565b60405180910390fd5b50505050565b600081519050919050565b600082825260208201905092915050565b6000819050602082019050919050565b600081519050919050565b600082825260208201905092915050565b60005b83811015610860578082015181840152602081019050610845565b60008484015250505050565b6000601f19601f8301169050919050565b600061088882610826565b6108928185610831565b93506108a2818560208601610842565b6108ab8161086c565b840191505092915050565b6000819050919050565b6108c9816108b6565b82525050565b600060408301600083015184820360008601526108ec828261087d565b915050602083015161090160208601826108c0565b508091505092915050565b600061091883836108cf565b905092915050565b6000602082019050919050565b6000610938826107fa565b6109428185610805565b93508360208202850161095485610816565b8060005b858110156109905784840389528151610971858261090c565b945061097c83610920565b925060208a01995050600181019050610958565b50829750879550505050505092915050565b600060208201905081810360008301526109bc818461092d565b905092915050565b6000604051905090565b600080fd5b600080fd5b6109e1816108b6565b81146109ec57600080fd5b50565b6000813590506109fe816109d8565b92915050565b600060208284031215610a1a57610a196109ce565b5b6000610a28848285016109ef565b91505092915050565b600082825260208201905092915050565b6000610a4d82610826565b610a578185610a31565b9350610a67818560208601610842565b610a708161086c565b840191505092915050565b610a84816108b6565b82525050565b60006040820190508181036000830152610aa48185610a42565b9050610ab36020830184610a7b565b9392505050565b600080fd5b600080fd5b7f4e487b7100000000000000000000000000000000000000000000000000000000600052604160045260246000fd5b610afc8261086c565b810181811067ffffffffffffffff82111715610b1b57610b1a610ac4565b5b80604052505050565b6000610b2e6109c4565b9050610b3a8282610af3565b919050565b600067ffffffffffffffff821115610b5a57610b59610ac4565b5b610b638261086c565b9050602081019050919050565b82818337600083830152505050565b6000610b92610b8d84610b3f565b610b24565b905082815260208101848484011115610bae57610bad610abf565b5b610bb9848285610b70565b509392505050565b600082601f830112610bd657610bd5610aba565b5b8135610be6848260208601610b7f565b91505092915050565b600060208284031215610c0557610c046109ce565b5b600082013567ffffffffffffffff811115610c2357610c226109d3565b5b610c2f84828501610bc1565b91505092915050565b600073ffffffffffffffffffffffffffffffffffffffff82169050919050565b6000610c6382610c38565b9050919050565b610c7381610c58565b82525050565b6000602082019050610c8e6000830184610c6a565b92915050565b6000602082019050610ca96000830184610a7b565b92915050565b600081519050919050565b600082825260208201905092915050565b6000819050602082019050919050565b6000610ce783836108c0565b60208301905092915050565b6000602082019050919050565b6000610d0b82610caf565b610d158185610cba565b9350610d2083610ccb565b8060005b83811015610d51578151610d388882610cdb565b9750610d4383610cf3565b925050600181019050610d24565b5085935050505092915050565b60006020820190508181036000830152610d788184610d00565b905092915050565b610d8981610c58565b8114610d9457600080fd5b50565b600081359050610da681610d80565b92915050565b600060208284031215610dc257610dc16109ce565b5b6000610dd084828501610d97565b91505092915050565b60008060408385031215610df057610def6109ce565b5b6000610dfe85828601610d97565b9250506020610e0f85828601610d97565b9150509250929050565b7f4e487b7100000000000000000000000000000000000000000000000000000000600052602260045260246000fd5b60006002820490506001821680610e6057607f821691505b602082108103610e7357610e72610e19565b5b50919050565b7f496e76616c696420696e64657800000000000000000000000000000000000000600082015250565b6000610eaf600d83610a31565b9150610eba82610e79565b602082019050919050565b60006020820190508181036000830152610ede81610ea2565b9050919050565b7f4e487b7100000000000000000000000000000000000000000000000000000000600052603260045260246000fd5b7f4e487b7100000000000000000000000000000000000000000000000000000000600052601160045260246000fd5b6000610f4e826108b6565b9150610f59836108b6565b9250828201905080821115610f7157610f70610f14565b5b92915050565b60008190508160005260206000209050919050565b60006020601f8301049050919050565b600082821b905092915050565b600060088302610fd97fffffffffffffffffffffffffffffffffffffffffffffffffffffffffffffffff82610f9c565b610fe38683610f9c565b95508019841693508086168417925050509392505050565b6000819050919050565b600061102061101b611016846108b6565b610ffb565b6108b6565b9050919050565b6000819050919050565b61103a83611005565b61104e61104682611027565b848454610fa9565b825550505050565b600090565b611063611056565b61106e818484611031565b505050565b5b818110156110925761108760008261105b565b600181019050611074565b5050565b601f8211156110d7576110a881610f77565b6110b184610f8c565b810160208510156110c0578190505b6110d46110cc85610f8c565b830182611073565b50505b505050565b600082821c905092915050565b60006110fa600019846008026110dc565b1980831691505092915050565b600061111383836110e9565b9150826002028217905092915050565b61112c82610826565b67ffffffffffffffff81111561114557611144610ac4565b5b61114f8254610e48565b61115a828285611096565b600060209050601f83116001811461118d576000841561117b578287015190505b6111858582611107565b8655506111ed565b601f19841661119b86610f77565b60005b828110156111c35784890151825560018201915060208501945060208101905061119e565b868310156111e057848901516111dc601f8916826110e9565b8355505b6001600288020188555050505b505050505050565b6000611200826108b6565b91507fffffffffffffffffffffffffffffffffffffffffffffffffffffffffffffffff820361123257611231610f14565b5b600182019050919050565b7f4f6e6c79206368616972706572736f6e2063616e20676976652072696768742060008201527f746f20766f74652e000000000000000000000000000000000000000000000000602082015250565b6000611299602883610a31565b91506112a48261123d565b604082019050919050565b600060208201905081810360008301526112c88161128c565b9050919050565b600081519050919050565b600081905092915050565b60006112f0826112cf565b6112fa81856112da565b935061130a818560208601610842565b80840191505092915050565b600061132282846112e5565b915081905092915050565b7f726967687420746f20766f7465206661696c6564000000000000000000000000600082015250565b6000611363601483610a31565b915061136e8261132d565b602082019050919050565b6000602082019050818103600083015261139281611356565b905091905056fea26469706673582212204f0a465e88e35129cd0c658eb9cebfe77ddd148cbfbc3d0fca9e29e2ea0ba65a64736f6c63430008110033",
  "immutableReferences": {},
  "source": "// SPDX-License-Identifier: GPL-3.0\r\nimport \"./ElectionsWinner.sol\";\r\nimport \"./Voters.sol\";\r\npragma solidity ^0.8.17;\r\n\r\ncontract Candidates {\r\n    struct Candidate {\r\n        string name; // name of the candidate who can receive votes\r\n        uint votes; // total votes it has\r\n    }\r\n    // uint public inde;\r\n    address public owner; //person who deployed the contract\r\n    Candidate[] public candidates; // array of type Candidate to store candidates name and their votes\r\n    uint public winnerIndex;\r\n    bytes data;\r\n    constructor(string[] memory existingCandidates) {\r\n        //initialize the existing candidates to the voting system\r\n        owner = msg.sender;\r\n        for (uint256 index = 0; index < existingCandidates.length; index++) {\r\n            candidates.push(\r\n                Candidate({name: existingCandidates[index], votes: 0})\r\n            );\r\n        }\r\n    }\r\n    function getCandidates() public view returns(Candidate[] memory){\r\n        return candidates;\r\n    }\r\n    function giveRightToVote(address voterContractAddress,address voterAccountAddress) public {\r\n        //need voters to give them access to vote\r\n        require(\r\n            msg.sender == owner,\r\n            \"Only chairperson can give right to vote.\"\r\n        );\r\n        //call giveAccessToVote function from Voters contract\r\n        (bool success,bytes memory data) = voterContractAddress.call(abi.encodeWithSignature(\"giveAccessToVote(address)\", voterAccountAddress));    \r\n        require(success,\"right to vote failed\");\r\n        // Voters temp = Voters(address(voterContractAddress));\r\n        // temp.giveAccessToVote(voterAccountAddress);\r\n    }\r\n    function addCandidate(string memory newCandidate) public { //add new candidate to elections\r\n        require(msg.sender == owner);\r\n        candidates.push(Candidate({name: newCandidate, votes: 0}));\r\n    }\r\n    function castVote(uint candidateIndex) public {\r\n        require(candidateIndex < candidates.length,\"Invalid index\");\r\n        candidates[candidateIndex].votes+=1;\r\n    }\r\n    function getWinnerName(address electionWinnerContractAddress) public returns (uint[] memory votesArray){\r\n        // ElectionsWinner electionsWinner = new ElectionsWinner(getCandidatesVotes());\r\n        // inde = electionsWinner.winnerIndex();\r\n        votesArray = getCandidatesVotes();\r\n        // return votesArray;\r\n        ElectionsWinner temp;\r\n        temp = ElectionsWinner(electionWinnerContractAddress);    \r\n        temp.getWinnerIndex(votesArray);\r\n        // (bool success,bytes memory _data ) = electionWinnerContractAddress.call(abi.encodeWithSignature(\"getWinnerIndex(uint[] memory)\",votesArray));\r\n        // require(success,\"didn't get winner index\");\r\n        // data = _data; \r\n        // require(success,\"Getting winner name failed\");       \r\n        // return data;\r\n        // return candidates[electionsWinner.winnerIndex()].name;\r\n    }\r\n    function getCandidatesVotes() public view returns (uint[] memory tempCandidatesVotes) { // return copy of Candidates\r\n        tempCandidatesVotes = new uint[](candidates.length);\r\n        for (uint index = 0; index < candidates.length; index++) {\r\n            tempCandidatesVotes[index] = candidates[index].votes;\r\n        }\r\n        // return tempCandidatesVotes;\r\n    }\r\n}\r\n",
  "sourcePath": "C:\\Users\\Muhammad Ibtisam\\Desktop\\7th semester\\Blockchain\\truffle-workspace\\smartvotingEthereum\\contracts\\Candidates.sol",
  "compiler": {
    "name": "solc",
    "version": "0.8.17+commit.8df45f5f.Emscripten.clang"
  },
  "schemaVersion": "3.4.11",
  "updatedAt": "2022-12-19T20:03:36.372Z",
  "networkType": "ethereum",
  "devdoc": {
    "kind": "dev",
    "methods": {},
    "version": 1
  },
  "userdoc": {
    "kind": "user",
    "methods": {},
    "version": 1
  }
}