{
  "contractName": "ElectionsWinner",
  "abi": [
    {
      "inputs": [],
      "stateMutability": "nonpayable",
      "type": "constructor"
    },
    {
      "inputs": [],
      "name": "owner",
      "outputs": [
        {
          "internalType": "address",
          "name": "",
          "type": "address"
        }
      ],
      "stateMutability": "view",
      "type": "function",
      "constant": true
    },
    {
      "inputs": [],
      "name": "winnerIndex",
      "outputs": [
        {
          "internalType": "uint256",
          "name": "",
          "type": "uint256"
        }
      ],
      "stateMutability": "view",
      "type": "function",
      "constant": true
    },
    {
      "inputs": [
        {
          "internalType": "uint256[]",
          "name": "tempVotes",
          "type": "uint256[]"
        }
      ],
      "name": "getWinnerIndex",
      "outputs": [],
      "stateMutability": "nonpayable",
      "type": "function"
    }
  ],
  "bytecode": "0x608060405234801561001057600080fd5b50336000806101000a81548173ffffffffffffffffffffffffffffffffffffffff021916908373ffffffffffffffffffffffffffffffffffffffff16021790555061048a806100606000396000f3fe608060405234801561001057600080fd5b50600436106100415760003560e01c80638da5cb5b146100465780638f00cbfa14610064578063f88a31f514610082575b600080fd5b61004e61009e565b60405161005b919061017d565b60405180910390f35b61006c6100c2565b60405161007991906101b1565b60405180910390f35b61009c60048036038101906100979190610365565b6100c8565b005b60008054906101000a900473ffffffffffffffffffffffffffffffffffffffff1681565b60015481565b60006001819055506000805b825181101561013757818382815181106100f1576100f06103ae565b5b6020026020010151111561012457828181518110610112576101116103ae565b5b60200260200101519150806001819055505b808061012f9061040c565b9150506100d4565b505050565b600073ffffffffffffffffffffffffffffffffffffffff82169050919050565b60006101678261013c565b9050919050565b6101778161015c565b82525050565b6000602082019050610192600083018461016e565b92915050565b6000819050919050565b6101ab81610198565b82525050565b60006020820190506101c660008301846101a2565b92915050565b6000604051905090565b600080fd5b600080fd5b600080fd5b6000601f19601f8301169050919050565b7f4e487b7100000000000000000000000000000000000000000000000000000000600052604160045260246000fd5b61022e826101e5565b810181811067ffffffffffffffff8211171561024d5761024c6101f6565b5b80604052505050565b60006102606101cc565b905061026c8282610225565b919050565b600067ffffffffffffffff82111561028c5761028b6101f6565b5b602082029050602081019050919050565b600080fd5b6102ab81610198565b81146102b657600080fd5b50565b6000813590506102c8816102a2565b92915050565b60006102e16102dc84610271565b610256565b905080838252602082019050602084028301858111156103045761030361029d565b5b835b8181101561032d578061031988826102b9565b845260208401935050602081019050610306565b5050509392505050565b600082601f83011261034c5761034b6101e0565b5b813561035c8482602086016102ce565b91505092915050565b60006020828403121561037b5761037a6101d6565b5b600082013567ffffffffffffffff811115610399576103986101db565b5b6103a584828501610337565b91505092915050565b7f4e487b7100000000000000000000000000000000000000000000000000000000600052603260045260246000fd5b7f4e487b7100000000000000000000000000000000000000000000000000000000600052601160045260246000fd5b600061041782610198565b91507fffffffffffffffffffffffffffffffffffffffffffffffffffffffffffffffff8203610449576104486103dd565b5b60018201905091905056fea2646970667358221220c53ddaa69483b0353595f16e994dc6dc01024ecb282afb22b9b7837778b4f47f64736f6c63430008110033",
  "immutableReferences": {},
  "source": "// SPDX-License-Identifier: GPL-3.0\r\npragma solidity ^0.8.17;\r\n\r\ncontract ElectionsWinner{\r\n    address public owner;\r\n    uint public winnerIndex;\r\n    constructor (){\r\n        owner = msg.sender;\r\n    }\r\n    function getWinnerIndex(uint[] memory tempVotes) public {\r\n        winnerIndex=0;\r\n        uint winningVotes = 0;\r\n        for (uint index = 0; index < tempVotes.length; index++) {\r\n            if (tempVotes[index] > winningVotes) {\r\n                winningVotes = tempVotes[index];\r\n                winnerIndex = index;\r\n            }\r\n        }\r\n    }\r\n}",
  "sourcePath": "C:\\Users\\Muhammad Ibtisam\\Desktop\\7th semester\\Blockchain\\truffle-workspace\\smartvotingEthereum\\contracts\\ElectionsWinner.sol",
  "compiler": {
    "name": "solc",
    "version": "0.8.17+commit.8df45f5f.Emscripten.clang"
  },
  "schemaVersion": "3.4.11",
  "updatedAt": "2022-12-19T20:03:36.404Z",
  "networkType": "ethereum",
  "devdoc": {
    "kind": "dev",
    "methods": {},
    "version": 1
  },
  "userdoc": {
    "kind": "user",
    "methods": {},
    "version": 1
  }
}