{
  "contractName": "Voters",
  "abi": [
    {
      "inputs": [],
      "stateMutability": "nonpayable",
      "type": "constructor"
    },
    {
      "inputs": [
        {
          "internalType": "address",
          "name": "",
          "type": "address"
        }
      ],
      "name": "voters",
      "outputs": [
        {
          "internalType": "bool",
          "name": "canVote",
          "type": "bool"
        },
        {
          "internalType": "bool",
          "name": "voted",
          "type": "bool"
        },
        {
          "internalType": "uint256",
          "name": "vote",
          "type": "uint256"
        }
      ],
      "stateMutability": "view",
      "type": "function",
      "constant": true
    },
    {
      "inputs": [
        {
          "internalType": "address",
          "name": "candidatesContractAddress",
          "type": "address"
        },
        {
          "internalType": "uint256",
          "name": "candidateIndex",
          "type": "uint256"
        }
      ],
      "name": "vote",
      "outputs": [],
      "stateMutability": "nonpayable",
      "type": "function"
    },
    {
      "inputs": [
        {
          "internalType": "address",
          "name": "voterAccountAddress",
          "type": "address"
        }
      ],
      "name": "giveAccessToVote",
      "outputs": [],
      "stateMutability": "nonpayable",
      "type": "function"
    }
  ],
  "bytecode": "0x608060405234801561001057600080fd5b50336000806101000a81548173ffffffffffffffffffffffffffffffffffffffff021916908373ffffffffffffffffffffffffffffffffffffffff160217905550610838806100606000396000f3fe608060405234801561001057600080fd5b50600436106100415760003560e01c806325725823146100465780635f74bbde14610062578063a3ec138d1461007e575b600080fd5b610060600480360381019061005b9190610522565b6100b0565b005b61007c60048036038101906100779190610585565b610239565b005b61009860048036038101906100939190610522565b61047b565b6040516100a7939291906105ef565b60405180910390f35b60001515600160008373ffffffffffffffffffffffffffffffffffffffff1673ffffffffffffffffffffffffffffffffffffffff16815260200190815260200160002060000160019054906101000a900460ff16151514610146576040517f08c379a000000000000000000000000000000000000000000000000000000000815260040161013d90610683565b60405180910390fd5b60011515600160008373ffffffffffffffffffffffffffffffffffffffff1673ffffffffffffffffffffffffffffffffffffffff16815260200190815260200160002060000160009054906101000a900460ff161515036101dc576040517f08c379a00000000000000000000000000000000000000000000000000000000081526004016101d3906106ef565b60405180910390fd5b60018060008373ffffffffffffffffffffffffffffffffffffffff1673ffffffffffffffffffffffffffffffffffffffff16815260200190815260200160002060000160006101000a81548160ff02191690831515021790555050565b60011515600160003373ffffffffffffffffffffffffffffffffffffffff1673ffffffffffffffffffffffffffffffffffffffff16815260200190815260200160002060000160009054906101000a900460ff161515146102cf576040517f08c379a00000000000000000000000000000000000000000000000000000000081526004016102c69061075b565b60405180910390fd5b60011515600160003373ffffffffffffffffffffffffffffffffffffffff1673ffffffffffffffffffffffffffffffffffffffff16815260200190815260200160002060000160019054906101000a900460ff16151503610365576040517f08c379a000000000000000000000000000000000000000000000000000000000815260040161035c906107c7565b60405180910390fd5b60008290508073ffffffffffffffffffffffffffffffffffffffff16633eb76b9c836040518263ffffffff1660e01b81526004016103a391906107e7565b600060405180830381600087803b1580156103bd57600080fd5b505af11580156103d1573d6000803e3d6000fd5b5050505081600160003373ffffffffffffffffffffffffffffffffffffffff1673ffffffffffffffffffffffffffffffffffffffff1681526020019081526020016000206001018190555060018060003373ffffffffffffffffffffffffffffffffffffffff1673ffffffffffffffffffffffffffffffffffffffff16815260200190815260200160002060000160016101000a81548160ff021916908315150217905550505050565b60016020528060005260406000206000915090508060000160009054906101000a900460ff16908060000160019054906101000a900460ff16908060010154905083565b600080fd5b600073ffffffffffffffffffffffffffffffffffffffff82169050919050565b60006104ef826104c4565b9050919050565b6104ff816104e4565b811461050a57600080fd5b50565b60008135905061051c816104f6565b92915050565b600060208284031215610538576105376104bf565b5b60006105468482850161050d565b91505092915050565b6000819050919050565b6105628161054f565b811461056d57600080fd5b50565b60008135905061057f81610559565b92915050565b6000806040838503121561059c5761059b6104bf565b5b60006105aa8582860161050d565b92505060206105bb85828601610570565b9150509250929050565b60008115159050919050565b6105da816105c5565b82525050565b6105e98161054f565b82525050565b600060608201905061060460008301866105d1565b61061160208301856105d1565b61061e60408301846105e0565b949350505050565b600082825260208201905092915050565b7f416c726561647920766f74656400000000000000000000000000000000000000600082015250565b600061066d600d83610626565b915061067882610637565b602082019050919050565b6000602082019050818103600083015261069c81610660565b9050919050565b7f416c72656164792061636365737320746f20766f746500000000000000000000600082015250565b60006106d9601683610626565b91506106e4826106a3565b602082019050919050565b60006020820190508181036000830152610708816106cc565b9050919050565b7f4e6f20416363657320746f20766f746500000000000000000000000000000000600082015250565b6000610745601083610626565b91506107508261070f565b602082019050919050565b6000602082019050818103600083015261077481610738565b9050919050565b7f416c726561647920766f7465642c2043616e7420766f746520616761696e0000600082015250565b60006107b1601e83610626565b91506107bc8261077b565b602082019050919050565b600060208201905081810360008301526107e0816107a4565b9050919050565b60006020820190506107fc60008301846105e0565b9291505056fea26469706673582212201abf6461638cd82e39d6644c2dec09b3ead9c413d64cdd175281870f32c6cf5064736f6c63430008110033",
  "immutableReferences": {},
  "source": "// SPDX-License-Identifier: GPL-3.0\r\npragma solidity ^0.8.17;\r\nimport \"./Candidates.sol\";\r\ncontract Voters {\r\n    struct Voter {\r\n        bool canVote;\r\n        bool voted;  // if true, that person already voted\r\n        uint vote;   // index of the voted proposal\r\n    }\r\n    // Voter public voter;\r\n    address owner;\r\n    mapping(address => Voter) public voters;\r\n    constructor(){\r\n       owner = msg.sender;\r\n        // candidates.call(bytes4(sha3(\"castVote(uint)\")),candidateIndex);\r\n    }\r\n    function vote(address candidatesContractAddress,uint candidateIndex) public{\r\n        require(voters[msg.sender].canVote==true,\"No Acces to vote\");\r\n        require(voters[msg.sender].voted!=true,\"Already voted, Cant vote again\");\r\n        // (bool success,bytes memory data) = candidatesContractAddress.call(abi.encodeWithSignature(\"castVote(uint)\", candidateIndex));    \r\n\r\n        // require(success,\"Voting to candidates from failed\");\r\n        Candidates temp;\r\n        temp = Candidates(candidatesContractAddress);    \r\n        temp.castVote(candidateIndex);\r\n        voters[msg.sender].vote = candidateIndex;\r\n        voters[msg.sender].voted = true;\r\n    }\r\n    function giveAccessToVote(address voterAccountAddress) public {\r\n        require(voters[voterAccountAddress].voted==false,\"Already voted\");\r\n        require(voters[voterAccountAddress].canVote!=true,\"Already access to vote\");\r\n        voters[voterAccountAddress].canVote = true;\r\n    }\r\n}",
  "sourcePath": "C:\\Users\\Muhammad Ibtisam\\Desktop\\7th semester\\Blockchain\\truffle-workspace\\smartvotingEthereum\\contracts\\Voters.sol",
  "compiler": {
    "name": "solc",
    "version": "0.8.17+commit.8df45f5f.Emscripten.clang"
  },
  "schemaVersion": "3.4.11",
  "updatedAt": "2022-12-19T20:03:36.394Z",
  "networkType": "ethereum",
  "devdoc": {
    "kind": "dev",
    "methods": {},
    "version": 1
  },
  "userdoc": {
    "kind": "user",
    "methods": {},
    "version": 1
  }
}